:1000000019C028C027C026C025C024C0BEC022C039
:1000100021C020C01FC01EC01DC01CC01BC01AC0F4
:1000200019C018C017C016C015C014C013C012C024
:1000300011C010C011241FBECFEFCDBFDFE3DEBF64
:100040002FE3A0E8BFE301C01D92AB38B207E1F790
:10005000F4D0C8C3D5CFE0E0F4E08189887F818BFC
:1000600081898460818B8189877F818BE0E0F6E0E4
:1000700081E1828381E08083868386E081830895A5
:10008000E0E0F6E081E086838087838580FFFDCF16
:10009000E0E0F6E081E08387808991890895E0E0DF
:1000A000F6E083E0868381E08087838580FFFDCF53
:1000B000E0E0F6E081E08387808991890895880FE8
:1000C000991F880F991F880F991F9C0140E050E0ED
:1000D0006AEA70EB88E290E023D3C9010895CF92D9
:1000E000DF92EF92FF92CF93C62F880F991F880F50
:1000F000991F880F991F9C0140E050E06AEA70EB5D
:1001000088E290E00DD3B90180E090E0FAD16B0174
:100110007C016C2F70E080E090E0F5D120E030E0D1
:1001200048EC52E44DD19B01AC01C701B60177D236
:10013000B9D1CB01CF91FF90EF90DF90CF90089590
:10014000E0E0F4E08081846080830895E0E0F4E002
:1001500080818B7F8083089593DF0024880F991F0F
:10016000001C880F991F001C892F902D8093843FBD
:100170009093853F803F21E0920710F0E7DF0895DC
:10018000803E914008F4DCDF08951F920F920FB675
:100190000F9211242F933F934F935F936F937F930D
:1001A0008F939F93AF93BF93EF93FF9381E08093DF
:1001B0004301D2DFFF91EF91BF91AF919F918F915A
:1001C0007F916F915F914F913F912F910F900FBE53
:1001D0000F901F901895CF92DF92FF920F931F936D
:1001E000CF93DF936C01F62E413099F4C0E0DAE052
:1001F00087E4898389858E7F8987C60160DF8EAB1E
:100200009FAB6F2DC6016BDF8CAF9DAF85E0888300
:100210000CC055DF00E01AE0F80186AB97AB6F2DFC
:10022000C6015DDFF80184AF95AFDF91CF911F91DB
:100230000F91FF90DF90CF90089580E895E28FD0E6
:100240007FDF09DF1DDF7C010024EE0CFF1C001C9A
:10025000EE0CFF1C001CEF2CF02CE092843FF0927F
:10026000853FC7018E509140823D9105D8F480ECC6
:100270009DE5B70141D28B0180E090E02AE030E0BB
:1002800040E050E04DD2D02FD21B8AE698E1B70172
:1002900033D204E911E0061B170B41E06D2FC801B2
:1002A0009ADF04C053DF00E010E0D0E08AE02FEFD7
:1002B00038EF95E1215030409040E1F700C0000058
:1002C0008150A9F7C0E0EBDE0024880F991F001CC5
:1002D000880F991F001C892F902D8093803F909349
:1002E000813F8D379140C0F140E066E2C80173DF85
:1002F0008091803F9091813F8D37914030F440E074
:100300006D2FC80168DFC0E001C0C1E0C8DE002475
:10031000880F991F001C880F991F001C892F902D92
:100320008093803F9093813F4AE050E066E87FE30E
:1003300019D288EE97E836D086E89FE333D088EF6D
:1003400097E830D08FEF91EE24E08150904020402C
:10035000E1F700C00000B7CFCC23C1F2D0CFE0E07E
:10036000F4E080818F778083808180648083E0E007
:10037000F8E087E594E080879187868180648683B2
:10038000868180688683858180688583089590E46E
:1003900090930408E0E0F8E0948195FFFDCF80930E
:1003A00002080895CF93DF93EC018881882329F018
:1003B0002196EDDF89918111FCCFDF91CF910895D6
:1003C0000E94F4010C94D5020E94CE0258F00E94C3
:1003D000C70240F029F45F3F29F00C94BE0251118E
:1003E0000C9409030C94C4020E94E60268F399235A
:1003F000B1F3552391F3951B550BBB27AA27621721
:100400007307840738F09F5F5F4F220F331F441F2D
:10041000AA1FA9F335D00E2E3AF0E0E832D0915061
:100420005040E695001CCAF72BD0FE2F29D0660F4E
:10043000771F881FBB1F261737074807AB07B0E891
:1004400009F0BB0B802DBF01FF2793585F4F3AF097
:100450009E3F510578F00C94BE020C9409035F3F57
:10046000E4F3983ED4F3869577956795B795F7951D
:100470009F5FC9F7880F911D9695879597F9089505
:10048000E1E0660F771F881FBB1F621773078407A1
:10049000BA0720F0621B730B840BBA0BEE1F88F7B0
:1004A000E09508950E94EE0288F09F5798F0B92FCA
:1004B0009927B751B0F0E1F0660F771F881F991F99
:1004C0001AF0BA95C9F714C0B13091F00E94080330
:1004D000B1E008950C940803672F782F8827B85F40
:1004E00039F0B93FCCF3869577956795B395D9F7F1
:1004F0003EF490958095709561957F4F8F4F9F4FFB
:100500000895E89409C097FB3EF490958095709506
:1005100061957F4F8F4F9F4F9923A9F0F92F96E94F
:10052000BB279395F695879577956795B795F111C4
:10053000F8CFFAF4BB0F11F460FF1BC06F5F7F4F61
:100540008F4F9F4F16C0882311F096E911C0772373
:1005500021F09EE8872F762F05C0662371F096E87C
:10056000862F70E060E02AF09A95660F771F881F4B
:10057000DAF7880F9695879597F9089597F99F6709
:1005800080E870E060E008959FEF80EC089500241B
:100590000A941616170618060906089500240A94E8
:1005A00012161306140605060895092E0394000C6E
:1005B00011F4882352F0BB0F40F4BF2B11F460FFFD
:1005C00004C06F5F7F4F8F4F9F4F089557FD905826
:1005D000440F551F59F05F3F71F04795880F97FB07
:1005E000991F61F09F3F79F08795089512161306C1
:1005F0001406551FF2CF4695F1DF08C016161706F0
:100600001806991FF1CF8695710561050894089524
:10061000E894BB2766277727CB0197F908950E94B6
:1006200022030C94D5020E94C70238F00E94CE0229
:1006300020F0952311F00C94BE020C94C4021124F6
:100640000C9409030E94E60270F3959FC1F3950F85
:1006500050E0551F629FF001729FBB27F00DB11D46
:10066000639FAA27F00DB11DAA1F649F6627B00DD6
:10067000A11D661F829F2227B00DA11D621F739FBF
:10068000B00DA11D621F839FA00D611D221F749FCD
:100690003327A00D611D231F849F600D211D822F14
:1006A000762F6A2F11249F5750409AF0F1F088233B
:1006B0004AF0EE0FFF1FBB1F661F771F881F915068
:1006C0005040A9F79E3F510580F00C94BE020C9457
:1006D00009035F3FE4F3983ED4F3869577956795D9
:1006E000B795F795E7959F5FC1F7FE2B880F911D92
:1006F0009695879597F90895AA1BBB1B51E107C0F2
:10070000AA1FBB1FA617B70710F0A61BB70B881FA1
:10071000991F5A95A9F780959095BC01CD01089530
:10072000A1E21A2EAA1BBB1BFD010DC0AA1FBB1FF5
:10073000EE1FFF1FA217B307E407F50720F0A21B67
:10074000B30BE40BF50B661F771F881F991F1A94D4
:1007500069F760957095809590959B01AC01BD01FE
:10076000CF0108954532510520F4423010F00C9429
:10077000BD03FB011082CB010895BB274A3031F441
:10078000992322F4BDE2909581959F4F0C94C90363
:10079000BB27FB015527AA27880F991FAA1FA4175B
:1007A00010F0A41B83955051B9F7A05DAA3308F04F
:1007B000A95DA193009779F7B111B1931192CB0183
:1007C0000C94E203DC01FC01672F71917723E1F7C0
:1007D000329704C07C916D9370836291AE17BF070E
:0807E000C8F30895F894FFCF5F
:1007E8004E544320536963616B6C696B203D200054
:0307F8000D0A00E7
:00000001FF
